:1004320041542B434D47533D2200220041542B434C
:100442004D47463D310050726F6A656374205475A2
:10045200726E6564206F6E2E0057454C434F4D45BA
:100462000052656164792100436F6E6E6563746941
:100472006E6720746F005472616E736D6974746577
:100482007200436F6E6E6563746564002E2E2E2EAD
:100492002E2E2E2E0046756C6C00342F3420004D0B
:1004A2006F746F72204F6E004D6F746F72204F66C3
:1004B20066004D6F746F72205475726E6564204FC2
:1004C20066662E2054616E6B2069732066756C6CB3
:1004D2002E004869676800332F3420004D65646937
:1004E200756D00322F3420004C6F7700312F34208D
:1004F20000456D70747900302F3420004D6F746F99
:1005020072205475726E6564204F6E2E2054616E97
:100512006B20697320456D7074792E004572726F7D
:10052200723A20436865636B007472616E736D6921
:10053200747465722E004D656E753A2831294F4EDE
:100542002832294F46460028312C32294175746FD2
:10055200456E61626C65002833294368616E676588
:10056200204E756D626572005475726E6564206FFF
:100572006E004175746F2D64697361626C6564000D
:100582004175746F656E61626C6564002D2D2D2D51
:100592002D2D2D2D2D2D2D005475726E6564206F1D
:1005A2006666002D2E2D2E2D2E2D2E2D2E2D2E2D2E
:1005B2002E2D2E2D2E2D2E2D00456E746572206E41
:1005C2006577206E756D6265723A004E6577206EB2
:0705D200756D6265723A00CD
:100A1B00011900011E01011A00011700011C000140
:080A2B001664011F0001200008
:0F0A4D008F90C2B6D2B7C2B77F027E0002000AF6
:040A7700C2AF7F018A
:050A7B00C2B5020A4DA6
:050A8600D2B5020A4D8B
:1009E2007F02120A7B7F38120A7B7F0E120A7B7FFC
:0E09F20001120A7B7F06120A7B7F80020A7BBD
:06091E007BFF7A04795B07
:100924008B218A228923AB21AA22A923120A3460AB
:10093400130523E5237002052214F9120A34FF1269
:050944000A8680E2229A
:0C0A6B00758920758DFD759850D28E2283
:070A5C007F1A120A637F0DEF
:080A63008F993099FDC2992220
:10099D008B248A258926AB24AA25A926120A346020
:1009AD00130526E5267002052514F9120A34FF12E7
:0509BD000A6380E22244
:030023000208DCF4
:1008DC00C0E0C0F0C083C082C0D075D000C000C0E2
:1008EC0001C002C003C004C005C006C00785991D25
:1008FC00C298AF1D120A86D007D006D005D004D0FE
:10090C0003D002D001D000D0D0D082D083D0F0D090
:02091C00E032C7
:06081B008B218A228923D3
:100821007EFF7DFF120A6BC2AF7BFF7A0479321221
:10083100099D7B007A00790812099D7BFF7A047972
:100841003C12099D7F0D120A63AF061EEF70FA7FFD
:100851000A120A637EFFAF061EEF6008AF051DEFA7
:1008610060F480F8AB21AA22A92312099D7EFF7DA5
:10087100FFAF061EEF6008AF051DEF60F480F812B0
:070881000A5C7F0A020A6312
:1009C200120A6BC2AF7BFF7A04793E12099D120AAA
:1009D2005C7F0A120A637FE87E0312000AD2AF220A
:10088800C2B475082B750939750A32750B33750CA6
:1008980033750D32750E38750F3175103875113581
:1008A800751231751332751431E4F5151209741285
:1008B8000A6B1209C27FE87E0312000A120A6B7BD8
:1008C800FF7A04794812081B1209E2120974120A05
:0408D80000020026F4
:060A800075A881D2882256
:030003000206C42E
:1006C400C0E0C0F0C083C082C0D075D000C000C0FC
:1006D40001C002C003C004C005C006C007C2AF7594
:1006E4001F037F0A7E0012000A751F0020B2177FC5
:1006F400147E0012000A30B2097F147E0012000A30
:100704008008D2AF806AD2AF8066051FE51FC3940C
:100714000340D930B204D2AF8056E516B4640375F1
:1007240016007F147E0012000AA2B292E3F51B7F2A
:10073400147E0012000AE51BA2B292E2F51B7F149C
:100744007E0012000AE51BA2B292E1F51B7F147E23
:100754000012000AE51BA2B292E0F51B24F1600826
:10076400240F700AC2B48006E5177002D2B4D2AF67
:10077400D007D006D005D004D003D002D001D000D9
:0B078400D0D0D082D083D0F0D0E03283
:040006007F647E0095
:10000A007DFFEF1FAA0670011E4A600AAC051DECAF
:06001A0070FA7DFF80EC8E
:0100200022BD
:1005D900D2A4D2A5D2A6D2A7C2A0D2A1D2A2D2A376
:1005E90020A40912000630A4FD7F442220A5091287
:1005F900000630A5FD7F432220A60912000630A679
:10060900FD7F422220A70912000630A7FD7F412263
:10061900D2A0C2A1D2A2D2A320A40912000630A45A
:10062900FD7F232220A50912000630A5FD7F39226E
:1006390020A60912000630A6FD7F362220A709123E
:10064900000630A7FD7F3322D2A0D2A1C2A2D2A335
:1006590020A40912000630A4FD7F302220A509122A
:10066900000630A5FD7F382220A60912000630A613
:10067900FD7F352220A70912000630A7FD7F32220F
:10068900D2A0D2A1D2A2C2A320A40912000630A4EA
:10069900FD7F2B2220A50912000630A5FD7F3722F8
:1006A90020A60912000630A6FD7F342220A70912D0
:0B06B900000630A7FD7F31227F0022E9
:100949001209E27F80120A7B12091E7FF47E0112CE
:10095900000A7F01120A7B7F80120A7B1205D98F58
:0B09690027EF60F8AF27120A8680F12C
:10097400E4F520E5202480FF120A7B12091E7F3251
:100984007E0012000A7F01120A7B7F80120A7B0517
:0909940020E520C3941040DB2291
:100A00007F01120A7B7F80120A7B7BFF7A04796365
:0B0A10001209247FE87E0312000A2276
:10002600C2B4D2B27F01120A7B7F80120A7B7BFFA9
:100036007A04796A1209247FC0120A7B7BFF7A044C
:1000460079781209247FF47E0112000A120A80E5EB
:1000560016646460FA120A777F80120A7B7BFF7A45
:100066000479841209247FC0120A7B7BFF7A047903
:100076008E1209247FE87E0312000AD2AFE517B478
:100086000108E51664016002D2B4E517B40202C2A3
:10009600B4E51A600302028EE51B14607B24FE7031
:1000A6000302016E24FC70030201B124F8700302FE
:1000B60001FE240F600302025AE516640170030272
:1000C600028E120A777F80120A7B7BFF7A04799769
:1000D6001209247FC0120A7B7BFF7A04799C1209DD
:1000E60024C2B47BFF30B4067A0479A180047A0472
:1000F60079AA1209247FE87E0312000A75160112F6
:100106000A80E51E700302028E7BFF7A0479B41220
:10011600081BE4F51E02028EE51664027003020255
:100126008EC2AF751E017F01120A7B7F80120A7B89
:100136007BFF7A0479D41209247FC0120A7B7BFFE5
:100146007A0479D9120924E517B401047BFF8005E6
:100156007BFF30B4067A0479A180047A0479AA1266
:10016600092475160202028B751E01E516640370DA
:100176000302028E120A777F80120A7B7BFF7A04C3
:1001860079DE1209247FC0120A7B7BFF7A0479E5A7
:100196001209247BFF30B4067A0479A180047A041C
:1001A60079AA12092475160302028BE516640470F7
:1001B6000302028E120A777F80120A7B7BFF7A0483
:1001C60079EA1209247FC0120A7B7BFF7A0479EE52
:1001D600120924E5177002D2B47BFF30B4067A0404
:1001E60079A180047A0479AA1209247FE87E031291
:1001F600000A75160402028BE516640570030202F6
:100206008E120A777F80120A7B7BFF7A0479F312BB
:1002160009247FC0120A7B7BFF7A0479F91209242C
:100226007BFF30B4067A0479A180047A0479AA1295
:1002360009247FE87E0312000AE5177012D2B4E59E
:100246001E60097BFF7A0479FE12081BE4F51E7511
:1002560016058031E5166406602E120A777F801235
:100266000A7B7BFF7A05791E1209247FC0120A7B5E
:100276007BFF7A05792B1209247FE87E0312000A98
:10028600C2B4751606120A80C2AFE4F51C1205D96F
:100296008F1CD2AFE51C7003020083E51A7032751D
:1002A6001A01F51C120A777F80120A7BE5177BFF7D
:1002B60070067A05793880047A0579491209247F0F
:1002C600C0120A7B7BFF7A057959120924E40203DE
:1002D600CDE51A640160030203D4F51AE51C24CEA9
:1002E60060601470030203AD24026003020083E51C
:1002F600177031120A777F80120A7B7BFF7A0579A5
:100306006A1209247FC0120A7B7BFF7A0579741270
:1003160009247FDC7E0512000AE4F516D2AF7517B4
:1003260001020083120A777F80120A7B7BFF7A051F
:1003360079821209247FC0120A7B7BFF7A05798EA7
:100346008051E5177031120A777F80120A7B7BFF96
:100356007A05799A1209247FC0120A7B7BFF7A05F7
:1003660079741209247FDC7E0512000AE4F516D2A0
:10037600AF751702020083120A777F80120A7B7B11
:10038600FF7A0579821209247FC0120A7B7BFF7AE5
:100396000579A51209247FDC7E0512000AE4F5160C
:1003A600D2AFF517020083C2AF751A027F01120A97
:1003B6007B7F80120A7B7BFF7A0579BB1209247F3B
:1003C600C0120A7BE4F519F516D2AF020083E51ACE
:1003D60064026003020083E519B40D03E4F515E534
:1003E60019C3940D501674082519F8A61C7408250F
:1003F60019F8E6FF120A860519020083E4F516F5D8
:100406001A120A777F80120A7B7BFF7A0579CD1252
:1004160009247FC0120A7B7B007A0079081209241E
:0C0426007FE87E0312000AD2AF020083C0
:0300000002078F65
:0C078F00787FE4F6D8FD7581270207D6BC
:100A3400BB010689828A83E0225002E722BBFE02C0
:090A4400E32289828A83E49322F3
:10079B00020888E493A3F8E493A34003F68001F2E4
:1007AB0008DFF48029E493A3F85407240CC8C3335F
:1007BB00C4540F4420C8834004F456800146F6DF2E
:1007CB00E4800B0102040810204080900A1BE47E99
:1007DB00019360BCA3FF543F30E509541FFEE49323
:1007EB00A360010ECF54C025E060A840B8E493A3EA
:1007FB00FAE493A3F8E493A3C8C582C8CAC583CA15
:10080B00F0A3C8C582C8CAC583CADFE9DEE780BECC
:010A330000C2
:00000001FF
