:03010E00010800E5
:1000FD007580FFAF8012008F7F3C7E001200E6807E
:01010D00F2FF
:10008F008F091200B8E509A2E31200E0E509A2E228
:10009F001200E0E509A2E11200E0E509131200E009
:0900AF00C2A07F147E000200E6ED
:1000B800D2A07F647E001200E6E4F508C2A0120018
:1000C800E2D2A01200E20508E508C3940340EDC29D
:0800D800A07F147E000200E687
:0600E00092A07F147E00D7
:1000E6007DFFEF1FAA0670011E4A600AAC051DECD3
:0600F60070FA7DFF80ECB2
:0100FC0022E1
:03000000020003F8
:0C000300787FE4F6D8FD75810902004A00
:10000F000200FDE493A3F8E493A34003F68001F20A
:10001F0008DFF48029E493A3F85407240CC8C333F2
:10002F00C4540F4420C8834004F456800146F6DFC1
:10003F00E4800B010204081020408090010EE47E42
:10004F00019360BCA3FF543F30E509541FFEE493B6
:10005F00A360010ECF54C025E060A840B8E493A37D
:10006F00FAE493A3F8E493A3C8C582C8CAC583CAA8
:10007F00F0A3C8C582C8CAC583CADFE9DEE780BE60
:0101110000ED
:00000001FF
